{
  "_format": "hh-sol-artifact-1",
  "contractName": "Roulette",
  "sourceName": "contracts/Roulette.sol",
  "abi": [
    {
      "inputs": [],
      "stateMutability": "nonpayable",
      "type": "constructor"
    },
    {
      "inputs": [
        {
          "internalType": "address",
          "name": "owner",
          "type": "address"
        }
      ],
      "name": "OwnableInvalidOwner",
      "type": "error"
    },
    {
      "inputs": [
        {
          "internalType": "address",
          "name": "account",
          "type": "address"
        }
      ],
      "name": "OwnableUnauthorizedAccount",
      "type": "error"
    },
    {
      "anonymous": false,
      "inputs": [
        {
          "indexed": true,
          "internalType": "address",
          "name": "from",
          "type": "address"
        },
        {
          "indexed": false,
          "internalType": "uint256",
          "name": "amount",
          "type": "uint256"
        }
      ],
      "name": "BankDeposit",
      "type": "event"
    },
    {
      "anonymous": false,
      "inputs": [
        {
          "indexed": true,
          "internalType": "address",
          "name": "to",
          "type": "address"
        },
        {
          "indexed": false,
          "internalType": "uint256",
          "name": "amount",
          "type": "uint256"
        }
      ],
      "name": "BankWithdrawal",
      "type": "event"
    },
    {
      "anonymous": false,
      "inputs": [
        {
          "indexed": false,
          "internalType": "uint256",
          "name": "oldMaxBet",
          "type": "uint256"
        },
        {
          "indexed": false,
          "internalType": "uint256",
          "name": "newMaxBet",
          "type": "uint256"
        }
      ],
      "name": "MaxBetUpdated",
      "type": "event"
    },
    {
      "anonymous": false,
      "inputs": [
        {
          "indexed": true,
          "internalType": "address",
          "name": "previousOwner",
          "type": "address"
        },
        {
          "indexed": true,
          "internalType": "address",
          "name": "newOwner",
          "type": "address"
        }
      ],
      "name": "OwnershipTransferred",
      "type": "event"
    },
    {
      "anonymous": false,
      "inputs": [
        {
          "indexed": true,
          "internalType": "address",
          "name": "player",
          "type": "address"
        },
        {
          "indexed": false,
          "internalType": "uint256",
          "name": "amount",
          "type": "uint256"
        }
      ],
      "name": "PlayerDeposit",
      "type": "event"
    },
    {
      "anonymous": false,
      "inputs": [
        {
          "indexed": true,
          "internalType": "address",
          "name": "player",
          "type": "address"
        },
        {
          "indexed": false,
          "internalType": "uint256",
          "name": "amount",
          "type": "uint256"
        }
      ],
      "name": "PlayerWithdrawal",
      "type": "event"
    },
    {
      "anonymous": false,
      "inputs": [
        {
          "indexed": true,
          "internalType": "address",
          "name": "player",
          "type": "address"
        },
        {
          "components": [
            {
              "internalType": "uint8",
              "name": "randomNumber",
              "type": "uint8"
            },
            {
              "internalType": "uint256[]",
              "name": "betResults",
              "type": "uint256[]"
            }
          ],
          "indexed": false,
          "internalType": "struct Roulette.RollResult",
          "name": "result",
          "type": "tuple"
        }
      ],
      "name": "Roll",
      "type": "event"
    },
    {
      "anonymous": false,
      "inputs": [
        {
          "indexed": false,
          "internalType": "uint256",
          "name": "oldFee",
          "type": "uint256"
        },
        {
          "indexed": false,
          "internalType": "uint256",
          "name": "newFee",
          "type": "uint256"
        }
      ],
      "name": "WithdrawalFeeUpdated",
      "type": "event"
    },
    {
      "inputs": [],
      "name": "deposit",
      "outputs": [],
      "stateMutability": "payable",
      "type": "function"
    },
    {
      "inputs": [],
      "name": "depositToBank",
      "outputs": [],
      "stateMutability": "payable",
      "type": "function"
    },
    {
      "inputs": [],
      "name": "getGameState",
      "outputs": [
        {
          "components": [
            {
              "internalType": "uint256",
              "name": "bankBalance",
              "type": "uint256"
            },
            {
              "internalType": "uint256",
              "name": "totalPlayerBalances",
              "type": "uint256"
            },
            {
              "internalType": "uint256",
              "name": "maxBet",
              "type": "uint256"
            },
            {
              "internalType": "uint256",
              "name": "withdrawalFee",
              "type": "uint256"
            },
            {
              "internalType": "uint256",
              "name": "playerBalance",
              "type": "uint256"
            }
          ],
          "internalType": "struct Roulette.GameState",
          "name": "",
          "type": "tuple"
        }
      ],
      "stateMutability": "view",
      "type": "function"
    },
    {
      "inputs": [],
      "name": "maxBet",
      "outputs": [
        {
          "internalType": "uint256",
          "name": "",
          "type": "uint256"
        }
      ],
      "stateMutability": "view",
      "type": "function"
    },
    {
      "inputs": [],
      "name": "owner",
      "outputs": [
        {
          "internalType": "address",
          "name": "",
          "type": "address"
        }
      ],
      "stateMutability": "view",
      "type": "function"
    },
    {
      "inputs": [
        {
          "internalType": "address",
          "name": "",
          "type": "address"
        }
      ],
      "name": "playerBalances",
      "outputs": [
        {
          "internalType": "uint256",
          "name": "",
          "type": "uint256"
        }
      ],
      "stateMutability": "view",
      "type": "function"
    },
    {
      "inputs": [],
      "name": "renounceOwnership",
      "outputs": [],
      "stateMutability": "nonpayable",
      "type": "function"
    },
    {
      "inputs": [
        {
          "components": [
            {
              "internalType": "uint8",
              "name": "betType",
              "type": "uint8"
            },
            {
              "internalType": "uint8",
              "name": "number",
              "type": "uint8"
            },
            {
              "internalType": "uint256",
              "name": "amount",
              "type": "uint256"
            }
          ],
          "internalType": "struct Roulette.Bet[]",
          "name": "bets",
          "type": "tuple[]"
        }
      ],
      "name": "roll",
      "outputs": [
        {
          "components": [
            {
              "internalType": "uint8",
              "name": "randomNumber",
              "type": "uint8"
            },
            {
              "internalType": "uint256[]",
              "name": "betResults",
              "type": "uint256[]"
            }
          ],
          "internalType": "struct Roulette.RollResult",
          "name": "",
          "type": "tuple"
        }
      ],
      "stateMutability": "nonpayable",
      "type": "function"
    },
    {
      "inputs": [
        {
          "internalType": "uint256",
          "name": "newMaxBet",
          "type": "uint256"
        }
      ],
      "name": "setMaxBet",
      "outputs": [],
      "stateMutability": "nonpayable",
      "type": "function"
    },
    {
      "inputs": [
        {
          "internalType": "uint256",
          "name": "newFee",
          "type": "uint256"
        }
      ],
      "name": "setWithdrawalFee",
      "outputs": [],
      "stateMutability": "nonpayable",
      "type": "function"
    },
    {
      "inputs": [],
      "name": "totalPlayerBalances",
      "outputs": [
        {
          "internalType": "uint256",
          "name": "",
          "type": "uint256"
        }
      ],
      "stateMutability": "view",
      "type": "function"
    },
    {
      "inputs": [
        {
          "internalType": "address",
          "name": "newOwner",
          "type": "address"
        }
      ],
      "name": "transferOwnership",
      "outputs": [],
      "stateMutability": "nonpayable",
      "type": "function"
    },
    {
      "inputs": [
        {
          "internalType": "uint256",
          "name": "amount",
          "type": "uint256"
        }
      ],
      "name": "withdraw",
      "outputs": [],
      "stateMutability": "nonpayable",
      "type": "function"
    },
    {
      "inputs": [
        {
          "internalType": "uint256",
          "name": "amount",
          "type": "uint256"
        }
      ],
      "name": "withdrawFromBank",
      "outputs": [],
      "stateMutability": "nonpayable",
      "type": "function"
    },
    {
      "inputs": [],
      "name": "withdrawalFee",
      "outputs": [
        {
          "internalType": "uint256",
          "name": "",
          "type": "uint256"
        }
      ],
      "stateMutability": "view",
      "type": "function"
    }
  ],
  "bytecode": "0x60806040523480156200001157600080fd5b5033600073ffffffffffffffffffffffffffffffffffffffff168173ffffffffffffffffffffffffffffffffffffffff1603620000885760006040517f1e4fbdf70000000000000000000000000000000000000000000000000000000081526004016200007f9190620001c4565b60405180910390fd5b6200009981620000bb60201b60201c565b50655af3107a400060038190555066038d7ea4c68000600481905550620001e1565b60008060009054906101000a900473ffffffffffffffffffffffffffffffffffffffff169050816000806101000a81548173ffffffffffffffffffffffffffffffffffffffff021916908373ffffffffffffffffffffffffffffffffffffffff1602179055508173ffffffffffffffffffffffffffffffffffffffff168173ffffffffffffffffffffffffffffffffffffffff167f8be0079c531659141344cd1fd0a4f28419497f9722a3daafe3b4186f6b6457e060405160405180910390a35050565b600073ffffffffffffffffffffffffffffffffffffffff82169050919050565b6000620001ac826200017f565b9050919050565b620001be816200019f565b82525050565b6000602082019050620001db6000830184620001b3565b92915050565b61266780620001f16000396000f3fe6080604052600436106100e85760003560e01c8063881eff1e1161008a578063ac1e502511610059578063ac1e5025146102af578063b7d0628b146102d8578063d0e30db014610303578063f2fde38b1461030d576100e8565b8063881eff1e146102265780638bc7e8c41461024f5780638da5cb5b1461027a578063a1a5ba78146102a5576100e8565b806334ab8e2f116100c657806334ab8e2f1461016a578063715018a6146101a75780637b38314c146101be5780637d6bf618146101fb576100e8565b80632e1a7d4d146100ed5780632e5b2168146101165780633037f27414610141575b600080fd5b3480156100f957600080fd5b50610114600480360381019061010f91906116b8565b610336565b005b34801561012257600080fd5b5061012b610581565b60405161013891906116f4565b60405180910390f35b34801561014d57600080fd5b50610168600480360381019061016391906116b8565b610587565b005b34801561017657600080fd5b50610191600480360381019061018c9190611774565b610733565b60405161019e91906118d8565b60405180910390f35b3480156101b357600080fd5b506101bc6110a6565b005b3480156101ca57600080fd5b506101e560048036038101906101e09190611958565b6110ba565b6040516101f291906116f4565b60405180910390f35b34801561020757600080fd5b506102106110d2565b60405161021d91906116f4565b60405180910390f35b34801561023257600080fd5b5061024d600480360381019061024891906116b8565b6110d8565b005b34801561025b57600080fd5b5061026461116e565b60405161027191906116f4565b60405180910390f35b34801561028657600080fd5b5061028f611174565b60405161029c9190611994565b60405180910390f35b6102ad61119d565b005b3480156102bb57600080fd5b506102d660048036038101906102d191906116b8565b611238565b005b3480156102e457600080fd5b506102ed6112ce565b6040516102fa9190611a17565b60405180910390f35b61030b611347565b005b34801561031957600080fd5b50610334600480360381019061032f9190611958565b611449565b005b600354811161037a576040517f08c379a000000000000000000000000000000000000000000000000000000000815260040161037190611ab5565b60405180910390fd5b600160003373ffffffffffffffffffffffffffffffffffffffff1673ffffffffffffffffffffffffffffffffffffffff168152602001908152602001600020548111156103fc576040517f08c379a00000000000000000000000000000000000000000000000000000000081526004016103f390611b21565b60405180910390fd5b60006003548261040c9190611b70565b905060003373ffffffffffffffffffffffffffffffffffffffff16826159d89060405161043890611bd5565b600060405180830381858888f193505050503d8060008114610476576040519150601f19603f3d011682016040523d82523d6000602084013e61047b565b606091505b50509050806104bf576040517f08c379a00000000000000000000000000000000000000000000000000000000081526004016104b690611c36565b60405180910390fd5b82600160003373ffffffffffffffffffffffffffffffffffffffff1673ffffffffffffffffffffffffffffffffffffffff168152602001908152602001600020600082825461050e9190611b70565b9250508190555082600260008282546105279190611b70565b925050819055503373ffffffffffffffffffffffffffffffffffffffff167fcb15aee0e66e2dd6413ec4a90b1cda19a3b024148655e9017356e0a82d7e855b8460405161057491906116f4565b60405180910390a2505050565b60045481565b61058f6114cf565b600081116105d2576040517f08c379a00000000000000000000000000000000000000000000000000000000081526004016105c990611ca2565b60405180910390fd5b600254816105e09190611cc2565b471015610622576040517f08c379a000000000000000000000000000000000000000000000000000000000815260040161061990611d68565b60405180910390fd5b600061062c611174565b73ffffffffffffffffffffffffffffffffffffffff16826159d89060405161065390611bd5565b600060405180830381858888f193505050503d8060008114610691576040519150601f19603f3d011682016040523d82523d6000602084013e610696565b606091505b50509050806106da576040517f08c379a00000000000000000000000000000000000000000000000000000000081526004016106d190611c36565b60405180910390fd5b6106e2611174565b73ffffffffffffffffffffffffffffffffffffffff167ffe1d2295d712ce535932e904b35127409502473afa635912c4f36885e6fdcabe8360405161072791906116f4565b60405180910390a25050565b61073b611622565b60008383905011610781576040517f08c379a000000000000000000000000000000000000000000000000000000000815260040161077890611dd4565b60405180910390fd5b6000805b848490508110156107cd578484828181106107a3576107a2611df4565b5b90506060020160400135826107b89190611cc2565b915080806107c590611e23565b915050610785565b50600160003373ffffffffffffffffffffffffffffffffffffffff1673ffffffffffffffffffffffffffffffffffffffff16815260200190815260200160002054811115610850576040517f08c379a000000000000000000000000000000000000000000000000000000000815260040161084790611b21565b60405180910390fd5b6000602542443360405160200161086993929190611ed4565b6040516020818303038152906040528051906020012060001c61088c9190611f40565b905060008585905067ffffffffffffffff8111156108ad576108ac611f71565b5b6040519080825280602002602001820160405280156108db5781602001602082028036833780820191505090505b50905060005b8686905081101561101d57600087878381811061090157610900611df4565b5b9050606002018036038101906109179190612092565b90506000816040015111610960576040517f08c379a000000000000000000000000000000000000000000000000000000000815260040161095790611ca2565b60405180910390fd5b600454816040015111156109a9576040517f08c379a00000000000000000000000000000000000000000000000000000000081526004016109a09061210b565b60405180910390fd5b600060ff16816000015160ff1603610a0b576024816020015160ff161115610a06576040517f08c379a00000000000000000000000000000000000000000000000000000000081526004016109fd90612177565b60405180910390fd5b610c35565b600160ff16816000015160ff1603610a6d576001816020015160ff161115610a68576040517f08c379a0000000000000000000000000000000000000000000000000000000008152600401610a5f90612209565b60405180910390fd5b610c34565b600260ff16816000015160ff1603610acf576001816020015160ff161115610aca576040517f08c379a0000000000000000000000000000000000000000000000000000000008152600401610ac19061229b565b60405180910390fd5b610c33565b600360ff16816000015160ff1603610b31576002816020015160ff161115610b2c576040517f08c379a0000000000000000000000000000000000000000000000000000000008152600401610b239061232d565b60405180910390fd5b610c32565b600460ff16816000015160ff1603610b93576002816020015160ff161115610b8e576040517f08c379a0000000000000000000000000000000000000000000000000000000008152600401610b859061232d565b60405180910390fd5b610c31565b600560ff16816000015160ff1603610bf5576001816020015160ff161115610bf0576040517f08c379a0000000000000000000000000000000000000000000000000000000008152600401610be7906123bf565b60405180910390fd5b610c30565b6040517f08c379a0000000000000000000000000000000000000000000000000000000008152600401610c279061242b565b60405180910390fd5b5b5b5b5b5b60008060ff16826000015160ff1603610c5c57816020015160ff168560ff16149050610e16565b60008560ff1603610c705760009050610e15565b600160ff16826000015160ff1603610ca257816020015160ff16600286610c97919061244b565b60ff16149050610e14565b600260ff16826000015160ff1603610d225760006001600287610cc5919061244b565b60ff161490506000600b8760ff161080610cf1575060128760ff16118015610cf05750601d8760ff16105b5b905060008760ff16118015610d1957506000846020015160ff16141515811515831515141515145b92505050610e13565b600360ff16826000015160ff1603610d5457816020015160ff16600386610d49919061244b565b60ff16149050610e12565b600460ff16826000015160ff1603610db457600c8260200151610d77919061247c565b60ff168560ff16118015610dad5750600c60018360200151610d9991906124b9565b610da3919061247c565b60ff168560ff1611155b9050610e11565b600560ff16826000015160ff1603610e10576000826020015160ff1603610df45760018560ff1610158015610ded575060128560ff1611155b9050610e0f565b60138560ff1610158015610e0c575060248560ff1611155b90505b5b5b5b5b5b5b5b8015610f6f5760008060ff16836000015160ff1603610e475760248360400151610e4091906124ee565b9050610eda565b600160ff16836000015160ff161480610e6a5750600260ff16836000015160ff16145b80610e7f5750600560ff16836000015160ff16145b15610e9c5760028360400151610e9591906124ee565b9050610ed9565b600360ff16836000015160ff161480610ebf5750600460ff16836000015160ff16145b15610ed85760038360400151610ed591906124ee565b90505b5b5b80600160003373ffffffffffffffffffffffffffffffffffffffff1673ffffffffffffffffffffffffffffffffffffffff1681526020019081526020016000206000828254610f299190611cc2565b925050819055508060026000828254610f429190611cc2565b9250508190555080858581518110610f5d57610f5c611df4565b5b60200260200101818152505050611008565b8160400151600160003373ffffffffffffffffffffffffffffffffffffffff1673ffffffffffffffffffffffffffffffffffffffff1681526020019081526020016000206000828254610fc29190611b70565b92505081905550816040015160026000828254610fdf9190611b70565b925050819055506000848481518110610ffb57610ffa611df4565b5b6020026020010181815250505b5050808061101590611e23565b9150506108e1565b503373ffffffffffffffffffffffffffffffffffffffff167fe48111e9ce1729afe1b3830e63da5c586be5e360d0696fb453c0a6837d578ab260405180604001604052808560ff1681526020018481525060405161107b91906118d8565b60405180910390a260405180604001604052808360ff16815260200182815250935050505092915050565b6110ae6114cf565b6110b86000611556565b565b60016020528060005260406000206000915090505481565b60025481565b6110e06114cf565b60008111611123576040517f08c379a000000000000000000000000000000000000000000000000000000000815260040161111a9061257c565b60405180910390fd5b60006004549050816004819055507fe2540aa451e6d0c70298948fce5bbb020f1064021915018f9a7099dd6e6b0366818360405161116292919061259c565b60405180910390a15050565b60035481565b60008060009054906101000a900473ffffffffffffffffffffffffffffffffffffffff16905090565b6111a56114cf565b600034116111e8576040517f08c379a00000000000000000000000000000000000000000000000000000000081526004016111df90611ca2565b60405180910390fd5b3373ffffffffffffffffffffffffffffffffffffffff167fd2cad255828c6a11390781271ed9c840b1e7bb3828e52f54ade2e47e921c1a943460405161122e91906116f4565b60405180910390a2565b6112406114cf565b60008111611283576040517f08c379a000000000000000000000000000000000000000000000000000000000815260040161127a90612611565b60405180910390fd5b60006003549050816003819055507f72aa1ef4707dfa7defd1468e6ffc70bf9517ce19e3afad93fcf4be42f2d494f581836040516112c292919061259c565b60405180910390a15050565b6112d661163f565b6040518060a00160405280478152602001600254815260200160045481526020016003548152602001600160003373ffffffffffffffffffffffffffffffffffffffff1673ffffffffffffffffffffffffffffffffffffffff16815260200190815260200160002054815250905090565b6000341161138a576040517f08c379a000000000000000000000000000000000000000000000000000000000815260040161138190611ca2565b60405180910390fd5b34600160003373ffffffffffffffffffffffffffffffffffffffff1673ffffffffffffffffffffffffffffffffffffffff16815260200190815260200160002060008282546113d99190611cc2565b9250508190555034600260008282546113f29190611cc2565b925050819055503373ffffffffffffffffffffffffffffffffffffffff167f58be02934e87dcdb08adf93a75fc2a42ebc8085dd7a32db852a7e1c21446ba1c3460405161143f91906116f4565b60405180910390a2565b6114516114cf565b600073ffffffffffffffffffffffffffffffffffffffff168173ffffffffffffffffffffffffffffffffffffffff16036114c35760006040517f1e4fbdf70000000000000000000000000000000000000000000000000000000081526004016114ba9190611994565b60405180910390fd5b6114cc81611556565b50565b6114d761161a565b73ffffffffffffffffffffffffffffffffffffffff166114f5611174565b73ffffffffffffffffffffffffffffffffffffffff16146115545761151861161a565b6040517f118cdaa700000000000000000000000000000000000000000000000000000000815260040161154b9190611994565b60405180910390fd5b565b60008060009054906101000a900473ffffffffffffffffffffffffffffffffffffffff169050816000806101000a81548173ffffffffffffffffffffffffffffffffffffffff021916908373ffffffffffffffffffffffffffffffffffffffff1602179055508173ffffffffffffffffffffffffffffffffffffffff168173ffffffffffffffffffffffffffffffffffffffff167f8be0079c531659141344cd1fd0a4f28419497f9722a3daafe3b4186f6b6457e060405160405180910390a35050565b600033905090565b6040518060400160405280600060ff168152602001606081525090565b6040518060a0016040528060008152602001600081526020016000815260200160008152602001600081525090565b6000604051905090565b600080fd5b600080fd5b6000819050919050565b61169581611682565b81146116a057600080fd5b50565b6000813590506116b28161168c565b92915050565b6000602082840312156116ce576116cd611678565b5b60006116dc848285016116a3565b91505092915050565b6116ee81611682565b82525050565b600060208201905061170960008301846116e5565b92915050565b600080fd5b600080fd5b600080fd5b60008083601f8401126117345761173361170f565b5b8235905067ffffffffffffffff81111561175157611750611714565b5b60208301915083606082028301111561176d5761176c611719565b5b9250929050565b6000806020838503121561178b5761178a611678565b5b600083013567ffffffffffffffff8111156117a9576117a861167d565b5b6117b58582860161171e565b92509250509250929050565b600060ff82169050919050565b6117d7816117c1565b82525050565b600081519050919050565b600082825260208201905092915050565b6000819050602082019050919050565b61181281611682565b82525050565b60006118248383611809565b60208301905092915050565b6000602082019050919050565b6000611848826117dd565b61185281856117e8565b935061185d836117f9565b8060005b8381101561188e5781516118758882611818565b975061188083611830565b925050600181019050611861565b5085935050505092915050565b60006040830160008301516118b360008601826117ce565b50602083015184820360208601526118cb828261183d565b9150508091505092915050565b600060208201905081810360008301526118f2818461189b565b905092915050565b600073ffffffffffffffffffffffffffffffffffffffff82169050919050565b6000611925826118fa565b9050919050565b6119358161191a565b811461194057600080fd5b50565b6000813590506119528161192c565b92915050565b60006020828403121561196e5761196d611678565b5b600061197c84828501611943565b91505092915050565b61198e8161191a565b82525050565b60006020820190506119a96000830184611985565b92915050565b60a0820160008201516119c56000850182611809565b5060208201516119d86020850182611809565b5060408201516119eb6040850182611809565b5060608201516119fe6060850182611809565b506080820151611a116080850182611809565b50505050565b600060a082019050611a2c60008301846119af565b92915050565b600082825260208201905092915050565b7f416d6f756e74206d7573742062652067726561746572207468616e207769746860008201527f64726177616c2066656500000000000000000000000000000000000000000000602082015250565b6000611a9f602a83611a32565b9150611aaa82611a43565b604082019050919050565b60006020820190508181036000830152611ace81611a92565b9050919050565b7f496e73756666696369656e7420706c617965722062616c616e63650000000000600082015250565b6000611b0b601b83611a32565b9150611b1682611ad5565b602082019050919050565b60006020820190508181036000830152611b3a81611afe565b9050919050565b7f4e487b7100000000000000000000000000000000000000000000000000000000600052601160045260246000fd5b6000611b7b82611682565b9150611b8683611682565b9250828203905081811115611b9e57611b9d611b41565b5b92915050565b600081905092915050565b50565b6000611bbf600083611ba4565b9150611bca82611baf565b600082019050919050565b6000611be082611bb2565b9150819050919050565b7f5472616e73666572206661696c65640000000000000000000000000000000000600082015250565b6000611c20600f83611a32565b9150611c2b82611bea565b602082019050919050565b60006020820190508181036000830152611c4f81611c13565b9050919050565b7f416d6f756e74206d7573742062652067726561746572207468616e2030000000600082015250565b6000611c8c601d83611a32565b9150611c9782611c56565b602082019050919050565b60006020820190508181036000830152611cbb81611c7f565b9050919050565b6000611ccd82611682565b9150611cd883611682565b9250828201905080821115611cf057611cef611b41565b5b92915050565b7f43616e6e6f74207769746864726177206d6f7265207468616e20617661696c6160008201527f626c652066756e64730000000000000000000000000000000000000000000000602082015250565b6000611d52602983611a32565b9150611d5d82611cf6565b604082019050919050565b60006020820190508181036000830152611d8181611d45565b9050919050565b7f4e6f20626574732070726f766964656400000000000000000000000000000000600082015250565b6000611dbe601083611a32565b9150611dc982611d88565b602082019050919050565b60006020820190508181036000830152611ded81611db1565b9050919050565b7f4e487b7100000000000000000000000000000000000000000000000000000000600052603260045260246000fd5b6000611e2e82611682565b91507fffffffffffffffffffffffffffffffffffffffffffffffffffffffffffffffff8203611e6057611e5f611b41565b5b600182019050919050565b6000819050919050565b611e86611e8182611682565b611e6b565b82525050565b60008160601b9050919050565b6000611ea482611e8c565b9050919050565b6000611eb682611e99565b9050919050565b611ece611ec98261191a565b611eab565b82525050565b6000611ee08286611e75565b602082019150611ef08285611e75565b602082019150611f008284611ebd565b601482019150819050949350505050565b7f4e487b7100000000000000000000000000000000000000000000000000000000600052601260045260246000fd5b6000611f4b82611682565b9150611f5683611682565b925082611f6657611f65611f11565b5b828206905092915050565b7f4e487b7100000000000000000000000000000000000000000000000000000000600052604160045260246000fd5b600080fd5b6000601f19601f8301169050919050565b611fbf82611fa5565b810181811067ffffffffffffffff82111715611fde57611fdd611f71565b5b80604052505050565b6000611ff161166e565b9050611ffd8282611fb6565b919050565b61200b816117c1565b811461201657600080fd5b50565b60008135905061202881612002565b92915050565b60006060828403121561204457612043611fa0565b5b61204e6060611fe7565b9050600061205e84828501612019565b600083015250602061207284828501612019565b6020830152506040612086848285016116a3565b60408301525092915050565b6000606082840312156120a8576120a7611678565b5b60006120b68482850161202e565b91505092915050565b7f416d6f756e742065786365656473206d6178696d756d20626574000000000000600082015250565b60006120f5601a83611a32565b9150612100826120bf565b602082019050919050565b60006020820190508181036000830152612124816120e8565b9050919050565b7f4e756d626572206d757374206265206265747765656e203020616e6420333600600082015250565b6000612161601f83611a32565b915061216c8261212b565b602082019050919050565b6000602082019050818103600083015261219081612154565b9050919050565b7f4e756d626572206d757374206265203020286576656e29206f72203120286f6460008201527f6429000000000000000000000000000000000000000000000000000000000000602082015250565b60006121f3602283611a32565b91506121fe82612197565b604082019050919050565b60006020820190508181036000830152612222816121e6565b9050919050565b7f4e756d626572206d7573742062652030202872656429206f7220312028626c6160008201527f636b290000000000000000000000000000000000000000000000000000000000602082015250565b6000612285602383611a32565b915061229082612229565b604082019050919050565b600060208201905081810360008301526122b481612278565b9050919050565b7f4e756d626572206d757374206265203020286669727374292c2031202873656360008201527f6f6e64292c206f72203220287468697264290000000000000000000000000000602082015250565b6000612317603283611a32565b9150612322826122bb565b604082019050919050565b600060208201905081810360008301526123468161230a565b9050919050565b7f4e756d626572206d75737420626520302028666972737429206f72203120287360008201527f65636f6e64290000000000000000000000000000000000000000000000000000602082015250565b60006123a9602683611a32565b91506123b48261234d565b604082019050919050565b600060208201905081810360008301526123d88161239c565b9050919050565b7f496e76616c696420626574207479706500000000000000000000000000000000600082015250565b6000612415601083611a32565b9150612420826123df565b602082019050919050565b6000602082019050818103600083015261244481612408565b9050919050565b6000612456826117c1565b9150612461836117c1565b92508261247157612470611f11565b5b828206905092915050565b6000612487826117c1565b9150612492836117c1565b92508282026124a0816117c1565b91508082146124b2576124b1611b41565b5b5092915050565b60006124c4826117c1565b91506124cf836117c1565b9250828201905060ff8111156124e8576124e7611b41565b5b92915050565b60006124f982611682565b915061250483611682565b925082820261251281611682565b9150828204841483151761252957612528611b41565b5b5092915050565b7f4d617820626574206d7573742062652067726561746572207468616e20300000600082015250565b6000612566601e83611a32565b915061257182612530565b602082019050919050565b6000602082019050818103600083015261259581612559565b9050919050565b60006040820190506125b160008301856116e5565b6125be60208301846116e5565b9392505050565b7f466565206d7573742062652067726561746572207468616e2030000000000000600082015250565b60006125fb601a83611a32565b9150612606826125c5565b602082019050919050565b6000602082019050818103600083015261262a816125ee565b905091905056fea2646970667358221220ba011ab081e302628967fc4b7dc3c8ed4e74694d94b0f74f82a9c311c67b688664736f6c63430008140033",
  "linkReferences": {},
  "deployedLinkReferences": {}
}